:100000000C9469000C9491000C9491000C94910054
:100010000C9491000C9491000C9491000C9491001C
:100020000C9491000C94DB040C9491000C949100BE
:100030000C9491000C9491000C9491000C949100FC
:100040000C94070C0C9491000C9491000C9491006A
:100050000C9491000C9491000C9491000C949100DC
:100060000C94A3060C9491001F1C1F1E1F1E1F1F23
:100070001E1F1E1F00000000240027002A00000091
:100080000000250028002B000000000023002600AF
:10009000290004040404040404040202020202020B
:1000A000030303030303010204081020408001023C
:1000B00004081020010204081020000000070002BC
:1000C0000100000304060000000000000000C5005D
:1000D0003F0511241FBECFEFD8E0DEBFCDBF11E03A
:1000E000A0E0B1E0EAEFFCE102C005900D92A83873
:1000F000B107D9F712E0A8E8B1E001C01D92AE3D0A
:10010000B107E1F710E0C2EDD0E004C02297FE0194
:100110000E94770ECE3CD107C9F70E94190E0C94AD
:100120007B0E0C94000080918B0190918C01892BA7
:1001300051F080919001882331F481E090E0909318
:100140008E0180938D0110929001089581E080933B
:10015000900184E690E090937701809376018091FE
:100160008B0190918C01019690938C0180938B016F
:10017000039754F08AE090E09093770180937601A2
:1001800010928C0110928B0108950F931F9382E9B6
:1001900091E040E050E060E070E00E9486088CE969
:1001A00091E06CE070E04BE050E02AE030E004E0E9
:1001B00010E00E94120484EF91E064E041E00E94AC
:1001C000DD0B1F910F910895CF93DF93C0E0D0E036
:1001D0008CE991E0BE0140E00E94F8034091890162
:1001E00050918A018CE991E0BE010E94D4038CE910
:1001F00091E0BE010E949F032196C430D10541F7D2
:10020000DF91CF9108959F92AF92BF92CF92DF92EC
:10021000EF92FF920F931F93CF93DF935C01EB015B
:10022000942E690193E0CC0FDD1F9A95E1F7C45E2F
:10023000DE4F8CE6E82E81E0F82E00E010E08881A9
:1002400090E0092C02C0959587950A94E2F7282F33
:1002500081E0C816D10419F4F701808506C0F2E0E8
:10026000CF16D10419F4F7018081280F8CE991E0B1
:10027000B501A8010E947F030F5F1F4F21970894CB
:10028000E108F10808301105D1F6DF91CF911F91F7
:100290000F91FF90EF90DF90CF90BF90AF909F9025
:1002A00008958091970190E02091980130919901F3
:1002B0002817390741F090E080917501882309F4EF
:1002C00091E09093750180918B0190918C01019741
:1002D00021F480918F01882391F1809195016AE04A
:1002E0000E94470E682F83E090E070E041E050E00C
:1002F00020E030E00E94030140919501809175015A
:10030000882319F4E0E0F0E002C0E2E0F0E0842F9E
:100310006AE00E94470E90E026EF3FEF829FB00117
:10032000839F700D929F700D1124640F711D82E0E8
:1003300090E042E050E09F010E9403010CC08CE974
:1003400091E063E070E00E949F038CE991E062E03D
:1003500070E00E949F0380918B0190918C01029725
:1003600021F480918F01882381F1809196016AE0C8
:100370000E94470E682F20E030E0809175018823AD
:1003800011F021E030E081E090E070E040E050E0EA
:100390000E94030140919601842F6AE00E94470E5B
:1003A00090E026EF3FEF829FB001839F700D929FF8
:1003B000700D1124640F711D80E090E041E050E069
:1003C00020E030E00E9403010CC08CE991E061E084
:1003D00070E00E949F038CE991E060E070E00E9471
:1003E0009F0380919701809398011092990190E06A
:1003F00080918F01882309F491E090938F010895F3
:100400000F931F93CF93DF9300E010E02BC08CE994
:1004100091E0BE0144E050E026E60E947F03219671
:10042000C430D105A1F768EC70E080E090E00E9454
:100430005D0CC0E0D0E08CE991E0BE0144E050E00A
:1004400029E90E947F032196C430D105A1F768EC09
:1004500070E080E090E00E945D0C0F5F1F4F0A305B
:10046000110519F0C0E0D0E0D2CFDF91CF911F91FC
:100470000F9108950F931F93DF93CF93CDB7DEB7FE
:100480002C970FB6F894DEBF0FBECDBF84EF91E07E
:100490000E94570B80918B0190918C0181309105C6
:1004A00039F480918D0190918E0120E13EE008C0E9
:1004B000029791F480918D0190918E012CE330E0B0
:1004C000AC01429FC001439F900D529F900D11249B
:1004D00090939B0180939A0180919A0190919B0146
:1004E000892B19F182E991E00E94B409DC01CB016A
:1004F00040919A0150919B01662757FD6095762F98
:10050000480F591F6A1F7B1F8E010F5F1F4FC801C5
:100510000E948608C8010E94D20A10929B01109284
:100520009A0110928E0110928D0188E891E00E944C
:10053000AC0A8823A1F00E94F3092F8338874987EA
:100540005A876B877C87A2E9B1E0FE01379686E087
:1005500001900D928150E1F781E0809391018091AB
:100560009101882319F00E94510102C00E940002EB
:100570006091760170917701882777FD8095982F9B
:100580000E945D0C2C960FB6F894DEBF0FBECDBF57
:10059000CF91DF911F910F9108950F931F93DF93D8
:1005A000CF9300D000D000D0CDB7DEB70E94E400DA
:1005B00084EF91E063E970E00E944A0B84EF91E0E0
:1005C00066EA70E040ED57E00E944E0B8BE592E04A
:1005D0000E94DF050E94F10988E891E00E94AC0AC0
:1005E000882369F48E010F5F1F4FC80160E071E03E
:1005F0004CE051E00E941709C8010E94D20A2696D9
:100600000FB6F894DEBF0FBECDBFCF91DF911F9123
:100610000F9108958F929F92AF92BF92CF92DF92E7
:10062000EF92FF920F931F93DF93CF9300D0CDB73C
:10063000DEB77C0149832A83660F771F86E590E049
:10064000E80EF91EF701008111818AEA9FEFE80E9A
:10065000F91E000F111F80E090E005C0F701E80FC0
:10066000F91F1082019680179107C4F38981F70161
:10067000E60FF71F81838A818083F701EC5AFF4FD1
:10068000808160E00E94300D015010406701C00E73
:10069000D11E0F5F1F4F90E5892E912C8E0C9F1C51
:1006A00082E5A82EB12CAE0CBF1C0EC0015010402C
:1006B000F4018081F501608141E0F60120810E9412
:1006C000D70D0894C108D108101611067CF384E5F3
:1006D00090E0E80EF91EF701808161E00E94300D84
:1006E0000F900F90CF91DF911F910F91FF90EF909E
:1006F000DF90CF90BF90AF909F908F900895DC01D6
:1007000077FD1CC0AA5ABF4F8D919C911197A65599
:10071000B0406817790794F44830510578F4FB012C
:1007200093E0EE0FFF1F9A95E1F7EA0FFB1FE40F2E
:10073000F51F208B4F5FCD010E940A030895DF92C1
:10074000EF92FF920F931F93CF93DF93EC017B0106
:1007500077FD22C0CA5ADF4F88819981C655D040A3
:1007600068177907CCF48B010E5F1F4F53E0000F21
:10077000111F5A95E1F70C0F1D1FDD24D394F801CA
:1007800011928F01CE01B7014D2D20E00E940A0386
:10079000D394F9E0DF1699F7DF91CF911F910F9174
:1007A000FF90EF90DF900895FC01242F77FD0DC09E
:1007B000EA5AFF4F80819181E655F040681779072A
:1007C00024F4CF014AE00E940A030895FC01242F7B
:1007D00077FD0DC0EA5AFF4F80819181E655F040C8
:1007E0006817790724F4CF014BE00E940A030895AB
:1007F000FC0177FD16C0EA5AFF4F80819181E655D2
:10080000F040681779076CF4442331F0CF014CE0D5
:1008100020E00E940A030895CF014CE021E00E94ED
:100820000A030895CF92DF92EF92FF920F931F93E6
:10083000CF93DF93EC016B01C05BDF4F699379933A
:100840004993599339832883C455D040C8010197EF
:10085000089710F008E010E0CA5ADF4F19830883A8
:10086000C655D0408E01005B1F4FF801808161E0CA
:100870000E94F10CFE01EE5AFF4F808161E00E9460
:10088000F10C74E5E72EF12CEC0EFD1EF7018081D2
:1008900061E00E94F10CF701808161E00E94300D5F
:1008A000F801D182C082FE0180E090E0108A0196BA
:1008B000319680349105D1F700E010E066E5C62E50
:1008C000D12CCC0EDD1E1DC0CE01B8014FE020E0C2
:1008D0000E940A03CE01B80147E050E00E94E603FF
:1008E000CE01B80149E020E00E940A03CE01B80120
:1008F0000E949F03CE01B80141E00E94F8030F5F00
:100900001F4FF6018081918108171907ECF2DF91E2
:10091000CF911F910F91FF90EF90DF90CF900895AE
:1009200080910E0290910F02A0911002B0911102DD
:100930000196A11DB11D80930E0290930F02A0930A
:100940001002B093110280910E0290910F02A091BB
:100950001002B091110220910802309109024091D9
:100960000A0250910B0282179307A407B50710F1F2
:10097000809112028823F1F481E080931202809129
:100980000E0290910F02A0911002B0911102821BF1
:10099000930BA40BB50B80930E0290930F02A093C0
:1009A0001002B0931102E0910C02F0910D02099532
:1009B0001092120208951F920F920FB60F921124F7
:1009C0002F933F934F935F936F937F938F939F9357
:1009D000AF93BF93EF93FF93809113029091140212
:1009E0008093B2000E949004FF91EF91BF91AF916C
:1009F0009F918F917F916F915F914F913F912F9137
:100A00000F900FBE0F901F90189581E080935A02AF
:100A10006093370210925802109259020895209163
:100A2000360230E080913502281B3109C901089552
:100A30004091350280913602481718F02FEF3FEFB2
:100A40000AC0E42FF0E0EB5EFD4F8081282F30E0FC
:100A50004F5F40933502C9010895E09135028091BE
:100A60003602E81718F0EFEFFFEF06C0F0E0EB5E9C
:100A7000FD4F8081E82FF0E0CF0108950895109296
:100A80005E0210925D0288EE93E0A0E0B0E08093F9
:100A90005F0290936002A0936102B09362028CE7C0
:100AA00091E090935C0280935B020895CF92DF9275
:100AB000EF92FF920F931F93CF93DF937C016B0113
:100AC0008A0180915A028823A1F0C0E0D0E00DC0D5
:100AD000D701ED91FC91D601AC0FBD1F0190F081C3
:100AE000E02DC7016C9109952196C017D10780F3BD
:100AF00004C0CB01642F0E948806C801DF91CF910A
:100B00001F910F91FF90EF90DF90CF900895DF93AA
:100B1000CF930F92CDB7DEB7FC01698380915A0263
:100B20008823C9F080915902803238F081E090E04A
:100B30009383828320E030E015C080915802E82F33
:100B4000F0E0E85CFD4F998190838F5F80935802BD
:100B50008093590205C0CE01019661E00E9488068B
:100B600021E030E0C9010F90CF91DF9108950F93FC
:100B7000062F8091370268E372E04091590221E02C
:100B80000E943306109258021092590210925A0293
:100B90000F91089561E00E94B7050895413208F071
:100BA00040E2862F65E172E00E94EA05109235026C
:100BB00080933602089521E00E94CE050895109298
:100BC00035021092360210925802109259020E9479
:100BD00034080895382F413210F040E042C080912F
:100BE00067028823E1F791E09093670220936902FE
:100BF0008FEF8093D40210928F0241504093900265
:100C00004F5F9093680280916802330F832B80932B
:100C1000680280916A02813041F410926A028091E8
:100C200068028093BB0085EC01C085EE8093BC0018
:100C3000809167028130E1F380918F02841710F474
:100C400040918F0220E030E00AC0FB01E20FF31F69
:100C5000D901A159BD4F8C9180832F5F3F4F24173D
:100C6000A0F3842F08950F931F93582F122F413212
:100C700010F081E04AC0809167028823E1F782E0AA
:100C800080936702009369028FEF8093D4021092E1
:100C90008F0240939002AFE6B2E0FB0102C0819167
:100CA0008D938E2F861B8417D0F31092680280914B
:100CB0006802550F852B8093680280916A0281300B
:100CC00041F410926A02809168028093BB0085EC27
:100CD00001C085EE8093BC00112321F08091670252
:100CE0008230E1F38091D4028F3F11F480E00DC097
:100CF0008091D402803211F482E007C08091D40246
:100D0000803311F084E001C083E01F910F910895BA
:100D1000482F613210F081E008958091670284309D
:100D200011F082E008956093B202A1E9B2E0842F4D
:100D30009C01F90102C081918D938E2F841B86172F
:100D4000D0F380E008951F920F920FB60F921124F6
:100D50002F933F934F935F936F937F938F939F93C3
:100D6000AF93BF93EF93FF938091B90090E0887F9A
:100D700090708036910509F4F2C081369105CCF56A
:100D80008832910509F47BC089329105B4F4803131
:100D9000910509F46FC0813191053CF4009709F485
:100DA00047C1089709F04FC165C08831910509F422
:100DB00066C0809709F047C182C08034910509F46C
:100DC000A4C08134910544F48033910509F482C0B4
:100DD000C89709F038C189C08035910509F489C0E8
:100DE0008835910509F496C08834910509F02BC126
:100DF000AEC08839910509F413C189399105ECF425
:100E00008837910509F4ABC0893791054CF48836D1
:100E1000910509F4A4C08037910509F014C19FC061
:100E20008838910509F4FCC08039910509F49DC00A
:100E30008038910509F007C198C0803B910509F4FD
:100E4000C6C0813B91054CF4803A910509F49FC0DE
:100E5000883A910509F0F7C0BAC0803C910509F4C1
:100E6000E3C0883C910509F4DFC0883B910509F097
:100E7000EAC0C2C0809168028093BB00CFC090914D
:100E80008F0280919002981768F490918F02E92F59
:100E9000F0E0E159FD4F80818093BB009F5F90930C
:100EA0008F02BCC080916902882309F44BC085ED94
:100EB0008093BC008091BC0084FDFCCFC2C080E266
:100EC0008093D40285ED8093BC008091BC0084FDAA
:100ED000FCCFB7C080E38093D40285ED8093BC0043
:100EE0008091BC0084FDFCCFACC088E38093D40229
:100EF0009BC080918F029091BB00E82FF0E0E159F8
:100F0000FD4F90838F5F80938F0290918F0280912D
:100F1000900282C080918F029091BB00E82FF0E098
:100F2000E159FD4F90838F5F80938F02809169021A
:100F3000882341F085ED8093BC008091BC0084FD46
:100F4000FCCF7FC081E080936A0284EA6EC085EDA9
:100F50008093BC008091BC0084FDFCCF72C083E014
:100F6000809367021092D30259C08091D3028032DD
:100F700008F056C08091D3029091BB00E82FF0E0BA
:100F8000ED54FD4F90838F5F8093D30247C08091D3
:100F9000D302803230F4E091D302F0E0ED54FD4F03
:100FA000108285ED8093BC008091BC0084FDFCCF55
:100FB000109267026091D302E0916D02F0916E028F
:100FC00083EB92E070E009951092D3022DC084E08B
:100FD000809367021092B1021092B202E0916B020C
:100FE000F0916C0209958091B202882329F481E086
:100FF0008093B202109291029091B102E92FF0E039
:10100000EF56FD4F80818093BB009F5F9093B102AC
:101010009091B1028091B202981710F485EC01C052
:1010200085E88093BC000FC085EC8093BC0009C0AC
:101030001092D40285ED8093BC008091BC0084FDA9
:10104000FCCF10926702FF91EF91BF91AF919F91FA
:101050008F917F916F915F914F913F912F910F9061
:101060000FBE0F901F9018951092670281E0809339
:10107000690210926A0282E161E00E94300D83E110
:1010800061E00E94300DE9EBF0E080818E7F80838B
:1010900080818D7F808388E48093B80085E480938D
:1010A000BC000895DC0187E0A03DB80710F0A05D0A
:1010B000B74050E028E630E091E007C0F9018491A4
:1010C000480F511D9F5F2F5F3F4F9617B8F3633056
:1010D00038F0CD0183709070892B11F44F5F5F4F12
:1010E0008DE691E0A89F9001A99F300DB89F300D2B
:1010F0001124215030401396B695A795B695A79523
:101100002A0F3B1F240F351FC9010895EF92FF924C
:101110000F931F93CF93DF93EC017A018B0180E84B
:101120009CEBA2E9B7ECE80EF91E0A1F1B1FC801D1
:10113000B7012CE330E040E050E00E94530E6D8395
:10114000C801B7012CE330E040E050E00E94530EAC
:10115000122F032FF42EE52E622F732F842F952F3D
:101160002CE330E040E050E00E94530E6C83612F8E
:10117000702F8F2D9E2D2CE330E040E050E00E9438
:10118000530E122F032FF42EE52E622F732F842F70
:10119000952F28E130E040E050E00E94530E6B8331
:1011A000612F702F8F2D9E2D28E130E040E050E020
:1011B0000E94530E60E0A3E9BEEF70E0862F90E03E
:1011C00083709070892B09F471E0E62FEF5F472F51
:1011D00050E0CA0183599E4F2817390738F0CD01D6
:1011E000841B950B280F391F6E2FE7CF688341E0D2
:1011F000E42FF0E0E959FF4F8491772319F0423052
:1012000009F48F5F90E0542F5F5F2817390720F0B3
:10121000281B390B452FECCF4983822F8F5F8A83A0
:10122000DF91CF911F910F91FF90EF900895CF9391
:10123000DF93DC01FB01EB012996818580538A3025
:1012400008F080E0298120533AE0839FC0011124F7
:10125000280F2C9380818A34A9F08B343CF4843499
:10126000C1F18634F1F08134C1F51DC08E3479F1BD
:101270008F341CF48D3489F51DC08F3421F18335F2
:1012800061F51FC08181813611F481E023C0828124
:101290008E3611F087E001C086E011968C9311978D
:1012A00019C082E017C08281823711F088E012C035
:1012B00084E010C08281823711F085E00BC083E0AA
:1012C00009C089E007C011963C93119706C08BE0D6
:1012D00001C08CE011968C931197EF0124966481E4
:1012E00060536A3008F060E0298120538AE0689FEB
:1012F000C0011124280F12962C931297EA019881AD
:1013000090539A3008F090E0FA01218120538AE04E
:10131000989FC0011124280F13962C93139733968E
:10132000EA019B8190539A3008F090E0218120538C
:101330008AE0989FC0011124280F14962C931497CB
:10134000FA013696EA014E8140534A3008F040E0F7
:10135000218120538AE0489FC0011124280F15964F
:101360002C93DF91CF9108950F931F938C01FC0173
:10137000808190E0618142810E945208A0E0B0E04B
:10138000BC01CD0128E130E040E050E00E94280E91
:10139000F8012381620F711D811D911D2CE330E046
:1013A00040E050E00E94280EF8012481620F711D78
:1013B000811D911D2CE330E040E050E00E94280E9A
:1013C0009B01AC01F8018581280F311D411D511D84
:1013D00020583C4B4249574CB901CA011F910F910B
:1013E000089581E00895BF92CF92DF92EF92FF922D
:1013F0000F931F93DF93CF9300D000D000D0CDB7D1
:10140000DEB70BE512E0C80168E670E00E94050552
:10141000C80160E00E948705C8010E94CA05C80192
:1014200068E670E047E050E00E94DB05C8010E94DA
:1014300018059FE7B92EB822C8010E941805C82ECA
:10144000C8010E941805D82EC8010E941805C801BD
:101450000E941805E82EC8010E941805F82EC80140
:101460000E941805282F30E0B4E035952795BA95ED
:10147000E1F74AEF5FEFB901649F9001659F300D7E
:10148000749F300D1124820F90E02B2D30E0A4E0EA
:1014900035952795AA95E1F7B901649F9001659F5D
:1014A000300D749F300D1124B20E2C2D30E0F4E07D
:1014B00035952795FA95E1F7B901649F9001659FED
:1014C000300D749F300D1124C20E2D2D30E0E4E05C
:1014D00035952795EA95E1F7B901649F9001659FDD
:1014E000300D749F300D1124D20E2E2D30E074E09B
:1014F000359527957A95E1F7B901649F9001659F2D
:10150000300D749F300D1124E20E2F2D30E064E079
:10151000359527956A95E1F7B901649F9001659F1C
:10152000300D749F300D1124F20E282F3F2D4E2DBB
:101530005D2D6C2D7B2D80E026960FB6F894DEBFD6
:101540000FBECDBFCF91DF911F910F91FF90EF9014
:10155000DF90CF90BF9008958BE592E068E670E051
:101560000E9405058BE592E060E00E9487058BE50F
:1015700092E00E94CA058BE592E068E670E041E0E7
:1015800050E00E94DB058BE592E00E94180520E008
:1015900090E0880F892F881F990B892B09F421E08F
:1015A000822F0895DF92EF92FF920F931F937C0199
:1015B0000BE512E0C80168E670E00E940505C8016D
:1015C00060E00E948705F7012581822F6AE00E9472
:1015D000470E46E0D42E8D9DC0011124280FC8016E
:1015E000622F0E948705F7012481822F6AE00E9402
:1015F000470E8D9DC0011124280FC801622F0E9443
:101600008705F7012381822F6AE00E94470E8D9D96
:10161000C0011124280FC801622F0E948705C8014C
:1016200060E00E948705F7012281822F6AE00E9414
:10163000470E8D9DC0011124280FC801622F0E9402
:101640008705F7012181822F6AE00E94470E8D9D58
:10165000C0011124280FC801622F0E948705F701DD
:101660002081822F6AE00E94470E8D9DC0011124C7
:10167000280FC801622F0E948705C80160E00E9400
:101680008705C8010E94CA051F910F91FF90EF9036
:10169000DF900895FC01748763870895FC0141156C
:1016A000510511F050874783708B67870895CF935A
:1016B000DF93EC018A8180FF02C0826001C08D7FD0
:1016C0008A8388810E94840D298130E04A818217B3
:1016D000930711F44E7F01C041604A834A81242F51
:1016E00030E0C901959587958227932780FF2DC00B
:1016F00040FF13C089899A8901969A8B898BE98565
:10170000FA85309711F0CE0109950E944F0C6B833A
:101710007C838D839E831B8A14C0EB85FC85309768
:1017200011F0CE010995ED85FE85309711F0CE01BF
:1017300009958FEF9FEFAFEFBFEF8B839C83AD8356
:10174000BE838A8184608A8329C04B7F4A838B81D0
:101750009C81AD81BE818F5F9F4FAF4FBF4FF1F036
:101760008B898823D9F40E944F0C2B813C814D81B9
:101770005E81621B730B840B950B2F81388540E0D3
:1017800050E0261737074807590740F4EF85F889D6
:10179000309721F0CE01099581E08B8B8A81817091
:1017A000DF91CF910895FC0181E08183623021F4C3
:1017B000808161E00E94300D08951F93CF93DF93E5
:1017C000EC01862F142F688360E00E94F10C112336
:1017D00011F4198204C0CE01612F0E94D30B1A822A
:1017E0008981882319F481E08A8301C01A821A86CC
:1017F00019861C861B861E861D86188A1F861A8AD5
:10180000198A81E08B8BDF91CF911F9108951F92F0
:101810000F920FB60F9211242F933F938F939F93A4
:10182000AF93BF938091D9029091DA02A091DB022D
:10183000B091DC023091DD020196A11DB11D232F74
:101840002D5F2D3720F02D570196A11DB11D20933E
:10185000DD028093D9029093DA02A093DB02B09369
:10186000DC028091D5029091D602A091D702B0916E
:10187000D8020196A11DB11D8093D5029093D60286
:10188000A093D702B093D802BF91AF919F918F914F
:101890003F912F910F900FBE0F901F9018958FB70B
:1018A000F8942091D9023091DA024091DB025091F4
:1018B000DC028FBFB901CA0108959B01AC017FB75B
:1018C000F8948091D5029091D602A091D702B09160
:1018D000D80266B5A89B05C06F3F19F00196A11DFF
:1018E000B11D7FBFBA2FA92F982F8827860F911D72
:1018F000A11DB11D62E0880F991FAA1FBB1F6A9529
:10190000D1F7BC012DC0FFB7F8948091D50290911A
:10191000D602A091D702B091D802E6B5A89B05C027
:10192000EF3F19F00196A11DB11DFFBFBA2FA92FDE
:10193000982F88278E0F911DA11DB11DE2E0880F01
:10194000991FAA1FBB1FEA95D1F7861B970B885ECC
:101950009340C8F2215030404040504068517C4F85
:10196000211531054105510571F60895789484B526
:10197000826084BD84B5816084BD85B5826085BD8B
:1019800085B5816085BDEEE6F0E080818160808371
:10199000E1E8F0E010828081826080838081816054
:1019A0008083E0E8F0E0808181608083E1EBF0E01B
:1019B000808184608083E0EBF0E0808181608083BF
:1019C000EAE7F0E0808184608083808182608083A8
:1019D0008081816080838081806880831092C100D3
:1019E0000895CF93DF93482F50E0CA018A559F4F47
:1019F000FC0134914E565F4FFA018491882369F1BE
:101A000090E0880F991FFC01EC58FF4FA591B4910D
:101A1000FC01E258FF4FC591D491662351F42FB7D2
:101A2000F8948C91932F909589238C9388818923A6
:101A30000BC0623061F42FB7F8948C91932F90957E
:101A400089238C938881832B88832FBF06C09FB7FF
:101A5000F8948C91832B8C939FBFDF91CF91089545
:101A6000482F50E0CA0186549F4FFC012491CA01BF
:101A70008A559F4FFC0194914E565F4FFA01349165
:101A8000332309F440C0222351F1233071F0243074
:101A900028F42130A1F0223011F514C02630B1F025
:101AA0002730C1F02430D9F404C0809180008F77B2
:101AB00003C0809180008F7D8093800010C084B52A
:101AC0008F7702C084B58F7D84BD09C08091B0003E
:101AD0008F7703C08091B0008F7D8093B000E32F9B
:101AE000F0E0EE0FFF1FE258FF4FA591B4912FB722
:101AF000F894662321F48C919095892302C08C91EF
:101B0000892B8C932FBF0895682F70E0CB018654EA
:101B10009F4FFC012491CB018A559F4FFC014491BA
:101B20006E567F4FFB019491992319F420E030E029
:101B30003CC0222351F1233071F0243028F42130AD
:101B4000A1F0223011F514C02630B1F02730C1F0D9
:101B50002430D9F404C0809180008F7703C0809135
:101B600080008F7D8093800010C084B58F7702C085
:101B700084B58F7D84BD09C08091B0008F7703C08C
:101B80008091B0008F7D8093B000892F90E0880F06
:101B9000991F88579F4FFC01A591B4918C9120E02B
:101BA00030E0842311F021E030E0C9010895BF92B4
:101BB000CF92DF92EF92FF920F931F93CF93DF9319
:101BC000E82EF62EB42EC7E0D0E0022F10E087E01A
:101BD000C82ED12CBB2059F4B6016C1B7D0BC8015B
:101BE00002C0959587956A95E2F7BC0107C0B801D8
:101BF0000C2E02C0759567950A94E2F761708E2DE0
:101C00000E94300D8F2D61E00E94300D8F2D60E01D
:101C10000E94300D21979FEFCF3FD907D9F6DF9172
:101C2000CF911F910F91FF90EF90DF90CF90BF90D9
:101C30000895CF93DF930E94B60C0E94CD02C0E0BE
:101C4000D0E00E943A022097E1F30E940000F9CF11
:101C5000629FD001739FF001829FE00DF11D649F90
:101C6000E00DF11D929FF00D839FF00D749FF00D1C
:101C7000659FF00D9927729FB00DE11DF91F639FBD
:101C8000B00DE11DF91FBD01CF0111240895991B6D
:101C900079E004C0991F961708F0961B881F7A9563
:101CA000C9F780950895A1E21A2EAA1BBB1BFD015E
:101CB0000DC0AA1FBB1FEE1FFF1FA217B307E4072B
:101CC000F50720F0A21BB30BE40BF50B661F771F83
:101CD000881F991F1A9469F7609570958095909563
:101CE0009B01AC01BD01CF010895EE0FFF1F0590D0
:0A1CF000F491E02D0994F894FFCF61
:101CFA004E6F7620333020323031340032333A336B
:101D0A00343A30340078FCCCCCCCCCFC787078787F
:101D1A00707070707078FCECEC7038FCFC78FCE445
:101D2A00F070E4FC786070786CECFC7070FCFC0C71
:101D3A007CF8C0FC7C787C0C7CFCCCFC78FCFCE05D
:101D4A00707038383878FCCCFC78CCFC7878FCCCCD
:101D5A00FCF8C0F878008080000080800000010153
:101D6A000000010100010A00000000008705560575
:081D7A000F0518052D053E05BB
:00000001FF
