:100000000C94EA000C9412010C9412010C9412014D
:100010000C9412010C9412010C9412010C94120114
:100020000C9412010C9412010C9412010C94120104
:100030000C9412010C9412010C9412010C941201F4
:100040000C9448110C9412010C9465130C94B31386
:100050000C9412010C9412010C9412010C941201D4
:100060000C94A7070C9412011F1C1F1E1F1E1F1F9C
:100070001E1F1E1F005EBCE2613FDD83C29C7E200E
:10008000A3FD1F419DC3217FFCA2401E5F01E3BD74
:100090003E6082DC237D9FC1421CFEA0E1BF5D0368
:1000A00080DE3C62BEE0025CDF81633D7C22C09E5C
:1000B0001D43A1FF4618FAA427799BC584DA386648
:1000C000E5BB5907DB856739BAE406581947A5FB34
:1000D0007826C49A653BD987045AB8E6A7F91B4528
:1000E000C6987A24F8A6441A99C7257B3A6486D81C
:1000F0005B05E7B98CD2306EEDB3510F4E10F2AC08
:100100002F7193CD114FADF3702ECC92D38D6F31F3
:10011000B2EC0E50AFF1134DCE90722C6D33D18FE7
:100120000C52B0EE326C8ED0530DEFB1F0AE4C12DB
:1001300091CF2D73CA947628ABF517490856B4EAC7
:100140006937D58B5709EBB536688AD495CB2977B3
:10015000F4AA4816E9B7550B88D6346A2B7597C9A7
:100160004A14F6A8742AC896154BA9F7B6E80A549B
:10017000D7896B3500000000240027002A0000000A
:100180000000250028002B000000000023002600AE
:10019000290004040404040404040202020202020A
:1001A000030303030303010204081020408001023B
:1001B00004081020010204081020000000070002BB
:1001C000010000030406000000000000000014010C
:1001D00043061F1511241FBECFEFD8E0DEBFCDBFF1
:1001E00011E0A0E0B1E0E6E3FFE202C005900D926D
:1001F000A43AB107D9F713E0A4EAB1E001C01D9217
:10020000A93BB107E1F711E0C4EDD1E004C02297AA
:10021000FE010E949517CE3CD107C9F70E947515C3
:100220000C9499170C9400000F931F9387EA91E0A8
:1002300040E050E060E070E00E948A0989EB91E0C4
:100240006CE070E04BE050E02AE030E002E010E0CB
:100250000E948B0581E192E064E040E00E94590435
:1002600005E212E0C80165E00E94380E83E392E0E7
:10027000B8010E946E0E1F910F910895CF92DF92E8
:10028000EF92FF920F931F93CF93DF936B017A014D
:100290008C01000F111F000F111F0F5A1E4FC0E0DD
:1002A000D0E0AE014E0D5F1D89EB91E0B601F80183
:1002B00021918F010E94F8042196C430D10589F75D
:1002C000DF91CF911F910F91FF90EF90DF90CF9032
:1002D00008958AE090E060E070E040E050E00E9425
:1002E0003E018BE090E060E070E044E050E00E946E
:1002F0003E018091B5019091B6016AE070E00E94E4
:100300005E17CB0161E070E040E050E00E943E01EA
:100310008091B5019091B6016AE070E00E945E178D
:1003200061E070E044E050E00E943E010895EF92E9
:10033000FF920F931F93CF93DF93EE24FF2425C0EA
:1003400089EB91E060E070E0AE01F80120810E944D
:10035000F80489EB91E061E070E0AE01F8012191D1
:100360008F010E94F8042196C830D10549F768EC46
:1003700070E080E090E00E949E1188E090E0E80E3E
:10038000F91E90E3E916F10431F087010F5D1E4F6D
:10039000C0E0D0E0D5CFDF91CF911F910F91FF90BA
:1003A000EF9008958091A5019091A601029721F404
:1003B0008091B101882331F18091AB016AE00E9404
:1003C0003E1790E060E070E040E050E00E943E01A7
:1003D0004091AB01842F6AE00E943E1790E026EF27
:1003E0003FEFBC01629FC001639F900D729F900D13
:1003F0001124840F911D60E070E044E050E00E9401
:100400003E0106C089EB91E060E070E00E941805B3
:100410008091A5019091A601019721F48091B101ED
:10042000882331F18091AA016AE00E943E1790E092
:1004300061E070E040E050E00E943E014091AA017E
:10044000842F6AE00E943E1790E026EF3FEFBC0148
:10045000629FC001639F900D729F900D1124840FC5
:10046000911D61E070E044E050E00E943E0106C052
:1004700089EB91E061E070E00E94180590E08091C6
:10048000B101882309F491E09093B10108950F938D
:100490001F93DF93CF93CDB7DEB72C970FB6F894A9
:1004A000DEBF0FBECDBF81E192E00E94D3038091F9
:1004B000A5019091A6018130910539F48091B30195
:1004C0009091B40120E13EE008C0029791F4809140
:1004D000B3019091B4012CE330E0AC01429FC00124
:1004E000439F900D529F900D11249093AE018093E5
:1004F000AD018091AD019091AE01892B19F187EA90
:1005000091E00E94B80ADC01CB014091AD0150910D
:10051000AE01662757FD6095762F480F591F6A1F59
:100520007B1F8E010F5F1F4FC8010E948A09C801FF
:100530000E94D60B1092AE011092AD011092B40140
:100540001092B30184EA91E00E94B00B882389F0F5
:100550000E94F70A2F83388749875A876B877C87E1
:10056000A7EAB1E0FE01379686E001900D92815036
:10057000E1F74091AC014093B7011092B80180912E
:10058000A5019091A601892B09F5242F30E0C9011E
:100590000197059748F0C9014597059728F029521A
:1005A00030402530310590F483E392E00E94B50F8E
:1005B00083E392E060E00E94B0100E94FD1570930A
:1005C000B6016093B5010E94690102C00E94D20188
:1005D0006091810170918201882777FD8095982F25
:1005E0000E949E112C960FB6F894DEBF0FBECDBFB1
:1005F000CF91DF911F910F9108950F931F93DF9378
:10060000CF93CDB7DEB72C970FB6F894DEBF0FBEF1
:10061000CDBF87E993E040E051EE60E070E00E94DA
:10062000EE1381E192E06DEA73E00E94C60381E17E
:1006300092E068E873E040ED57E00E94CA038CE85E
:1006400092E00E94E3060E94F50A84EA91E00E948B
:10065000B00B882369F48E010F5F1F4FC80160E063
:1006600071E04CE051E00E941B0AC8010E94D60BC9
:100670000E94F70A2F83388749875A876B877C87C0
:10068000A7EAB1E0FE01379686E001900D92815015
:10069000E1F783E392E00E94DF1089EB91E060E0F4
:1006A00070E040E00E9471054091AF015091B001AF
:1006B00089EB91E060E070E00E944D0589EB91E0EC
:1006C00060E070E00E94180589EB91E061E070E065
:1006D00040E00E9471054091AF015091B00189EB5B
:1006E00091E061E070E00E944D0589EB91E061E0EE
:1006F00070E00E9418050E9497012C960FB6F8949E
:10070000DEBF0FBECDBFCF91DF911F910F91089536
:1007100087E993E065E171E00E94EA1581E080934A
:10072000B20184E690E090938201809381018091F0
:10073000A5019091A60101969093A6018093A50131
:10074000039754F08AE090E09093820180938101B6
:100750001092A6011092A501089587E993E06AE13D
:1007600071E00E94EA158091A5019091A601892B64
:1007700051F08091B201882331F481E090E09093B0
:10078000B4018093B3011092B2010895FC01748703
:1007900063870895FC014115510511F05087478387
:1007A000708B67870895CF93DF93EC018A8180FF78
:1007B00002C0826001C08D7F8A8388810E94CF122F
:1007C000298130E04A818217930711F44E7F01C0DE
:1007D00041604A834A81242F30E0C901959587956D
:1007E0008227932780FF2DC040FF13C089899A89F3
:1007F00001969A8B898BE985FA85309711F0CE01A5
:1008000009950E9490116B837C838D839E831B8A44
:1008100014C0EB85FC85309711F0CE010995ED856C
:10082000FE85309711F0CE0109958FEF9FEFAFEF66
:10083000BFEF8B839C83AD83BE838A8184608A8370
:1008400029C04B7F4A838B819C81AD81BE818F5FA4
:100850009F4FAF4FBF4FF1F08B898823D9F40E948F
:1008600090112B813C814D815E81621B730B840B47
:10087000950B2F81388540E050E026173707480751
:10088000590740F4EF85F889309721F0CE0109959A
:1008900081E08B8B8A818170DF91CF910895FC017B
:1008A00081E08183623021F4808161E00E947B12CB
:1008B00008951F93CF93DF93EC01862F142F688345
:1008C00060E00E943C12112311F4198204C0CE0191
:1008D000612F0E944F041A828981882319F481E0D4
:1008E0008A8301C01A821A8619861C861B861E8678
:1008F0001D86188A1F861A8A198A81E08B8BDF91E0
:10090000CF911F9108958F929F92AF92BF92CF92F5
:10091000DF92EF92FF920F931F93DF93CF9300D05C
:10092000CDB7DEB77C0149832A83660F771F86E542
:1009300090E0E80EF91EF701008111818AEA9FEF2D
:10094000E80EF91E000F111F80E090E005C0F701CE
:10095000E80FF91F1082019680179107C4F389816F
:10096000F701E60FF71F81838A818083F701EC5A34
:10097000FF4F808160E00E947B12015010406701B0
:10098000C00ED11E0F5F1F4F90E5892E912C8E0C4B
:100990009F1C82E5A82EB12CAE0CBF1C0EC00150CE
:1009A0001040F4018081F501608141E0F601208171
:1009B0000E9422130894C108D108101611067CF376
:1009C00084E590E0E80EF91EF701808161E00E9465
:1009D0007B120F900F90CF91DF911F910F91FF909D
:1009E000EF90DF90CF90BF90AF909F908F90089541
:1009F000DC0177FD1CC0AA5ABF4F8D919C911197C5
:100A0000A655B0406817790794F44830510578F43A
:100A1000FB0193E0EE0FFF1F9A95E1F7EA0FFB1F32
:100A2000E40FF51F208B4F5FCD010E9483040895D2
:100A3000DF92EF92FF920F931F93CF93DF93EC011E
:100A40007B0177FD22C0CA5ADF4F88819981C65544
:100A5000D04068177907CCF48B010E5F1F4F53E02D
:100A6000000F111F5A95E1F70C0F1D1FDD24D394C1
:100A7000F80111928F01CE01B7014D2D20E00E94A7
:100A80008304D394F9E0DF1699F7DF91CF911F919A
:100A90000F91FF90EF90DF900895FC01242F77FDD8
:100AA0000DC0EA5AFF4F80819181E655F0406817EA
:100AB000790724F4CF014AE00E9483040895FC01E1
:100AC000242F77FD0DC0EA5AFF4F80819181E655B2
:100AD000F0406817790724F4CF014BE00E948304AB
:100AE0000895FC0177FD16C0EA5AFF4F808191817D
:100AF000E655F040681779076CF4442331F0CF01D4
:100B00004CE020E00E9483040895CF014CE021E0F6
:100B10000E9483040895CF92DF92EF92FF920F9389
:100B20001F93CF93DF93EC016B01C05BDF4F6993A1
:100B300079934993599339832883C455D040C80188
:100B40000197089710F008E010E0CA5ADF4F1983A8
:100B50000883C655D0408E01005B1F4FF80180818D
:100B600061E00E943C12FE01EE5AFF4F808161E07D
:100B70000E943C1274E5E72EF12CEC0EFD1EF701ED
:100B8000808161E00E943C12F701808161E00E9457
:100B90007B12F801D182C082FE0180E090E0108AD1
:100BA0000196319680349105D1F700E010E066E5BA
:100BB000C62ED12CCC0EDD1E1DC0CE01B8014FE0DB
:100BC00020E00E948304CE01B80147E050E00E947B
:100BD0005F05CE01B80149E020E00E948304CE0108
:100BE000B8010E941805CE01B80141E00E947105CC
:100BF0000F5F1F4FF6018081918108171907ECF2F2
:100C0000DF91CF911F910F91FF90EF90DF90CF90E8
:100C1000089581E080938B026093680210928902AC
:100C200010928A0208952091670230E08091660256
:100C3000281B3109C901089540916602809167021D
:100C4000481718F02FEF3FEF0AC0E42FF0E0EA5BFF
:100C5000FD4F8081282F30E04F5F40936602C9012D
:100C60000895E091660280916702E81718F0EFEFAF
:100C7000FFEF06C0F0E0EA5BFD4F8081E82FF0E077
:100C8000CF010895089510928F0210928E0288EE7F
:100C900093E0A0E0B0E08093900290939102A09343
:100CA0009202B093930287E891E090938D02809333
:100CB0008C020895CF92DF92EF92FF920F931F93D1
:100CC000CF93DF937C016B018A0180918B02882393
:100CD000A1F0C0E0D0E00DC0D701ED91FC91D601AC
:100CE000AC0FBD1F0190F081E02DC7016C910995FB
:100CF0002196C017D10780F304C0CB01642F0E9456
:100D00008C07C801DF91CF911F910F91FF90EF9059
:100D1000DF90CF900895DF93CF930F92CDB7DEB7DA
:100D2000FC01698380918B028823C9F080918A023B
:100D3000803238F081E090E09383828320E030E0DD
:100D400015C080918902E82FF0E0E759FD4F9981A5
:100D500090838F5F8093890280938A0205C0CE01C1
:100D6000019661E00E948C0721E030E0C9010F90FC
:100D7000CF91DF9108950F93062F8091680269E665
:100D800072E040918A0221E00E94370710928902A6
:100D900010928A0210928B020F91089561E00E94D6
:100DA000BB060895413208F040E2862F66E472E007
:100DB0000E94EE061092660280936702089521E079
:100DC0000E94D20608951092660210926702109255
:100DD000890210928A020E9438090895382F413200
:100DE00010F040E042C0809198028823E1F791E042
:100DF0009093980220939A028FEF809305031092AC
:100E0000C00241504093C1024F5F9093990280917C
:100E10009902330F832B8093990280919B0281303A
:100E200041F410929B02809199028093BB0085EC63
:100E300001C085EE8093BC00809198028130E1F37F
:100E40008091C002841710F44091C00220E030E08D
:100E50000AC0FB01E20FF31FD901A056BD4F8C91D0
:100E600080832F5F3F4F2417A0F3842F08950F93A3
:100E70001F93582F122F413210F081E04AC0809109
:100E800098028823E1F782E08093980200939A0207
:100E90008FEF809305031092C0024093C102A0EA35
:100EA000B2E0FB0102C081918D938E2F861B8417C7
:100EB000D0F31092990280919902550F852B80935F
:100EC000990280919B02813041F410929B028091A3
:100ED00099028093BB0085EC01C085EE8093BC0035
:100EE000112321F0809198028230E1F38091050373
:100EF0008F3F11F480E00DC080910503803211F422
:100F000082E007C080910503803311F084E001C0C6
:100F100083E01F910F910895482F613210F081E016
:100F2000089580919802843011F082E008956093D2
:100F3000E302A2ECB2E0842F9C01F90102C081918E
:100F40008D938E2F841B8617D0F380E008951F9217
:100F50000F920FB60F9211242F933F934F935F93ED
:100F60006F937F938F939F93AF93BF93EF93FF9371
:100F70008091B90090E0887F90708036910509F4E7
:100F8000F2C081369105CCF58832910509F47BC019
:100F900089329105B4F48031910509F46FC0813133
:100FA00091053CF4009709F447C1089709F04FC137
:100FB00065C08831910509F466C0809709F047C182
:100FC00082C08034910509F4A4C08134910544F4B1
:100FD0008033910509F482C0C89709F038C189C0EF
:100FE0008035910509F489C08835910509F496C0CA
:100FF0008834910509F02BC1AEC08839910509F4F8
:1010000013C189399105ECF48837910509F4ABC017
:10101000893791054CF48836910509F4A4C08037CE
:10102000910509F014C19FC08838910509F4FCC0EE
:101030008039910509F49DC08038910509F007C1F8
:1010400098C0803B910509F4C6C0813B91054CF4E2
:10105000803A910509F49FC0883A910509F0F7C0DC
:10106000BAC0803C910509F4E3C0883C910509F4BD
:10107000DFC0883B910509F0EAC0C2C080919902A7
:101080008093BB00CFC09091C0028091C10298179D
:1010900068F49091C002E92FF0E0E056FD4F8081A6
:1010A0008093BB009F5F9093C002BCC080919A0266
:1010B000882309F44BC085ED8093BC008091BC006F
:1010C00084FDFCCFC2C080E28093050385ED809350
:1010D000BC008091BC0084FDFCCFB7C080E380934E
:1010E000050385ED8093BC008091BC0084FDFCCF9E
:1010F000ACC088E3809305039BC08091C0029091AF
:10110000BB00E82FF0E0E056FD4F90838F5F8093A7
:10111000C0029091C0028091C10282C08091C00241
:101120009091BB00E82FF0E0E056FD4F90838F5F79
:101130008093C00280919A02882341F085ED8093CC
:10114000BC008091BC0084FDFCCF7FC081E0809317
:101150009B0284EA6EC085ED8093BC008091BC0048
:1011600084FDFCCF72C083E0809398021092040348
:1011700059C080910403803208F056C08091040366
:101180009091BB00E82FF0E0EC51FD4F90838F5F12
:101190008093040347C080910403803230F4E091CF
:1011A0000403F0E0EC51FD4F108285ED8093BC000C
:1011B0008091BC0084FDFCCF1092980260910403E2
:1011C000E0919E02F0919F0284EE92E070E009951A
:1011D000109204032DC084E0809398021092E202E2
:1011E0001092E302E0919C02F0919D02099580919A
:1011F000E302882329F481E08093E3021092C20283
:101200009091E202E92FF0E0EE53FD4F8081809350
:10121000BB009F5F9093E2029091E2028091E30213
:10122000981710F485EC01C085E88093BC000FC0CE
:1012300085EC8093BC0009C01092050385ED809376
:10124000BC008091BC0084FDFCCF10929802FF91FD
:10125000EF91BF91AF919F918F917F916F915F912E
:101260004F913F912F910F900FBE0F901F901895A7
:101270001092980281E080939A0210929B0282E180
:1012800061E00E947B1283E161E00E947B12E9EB46
:10129000F0E080818E7F808380818D7F808388E4F1
:1012A0008093B80085E48093BC000895DC0187E05A
:1012B000A03DB80710F0A05DB74050E028E630E050
:1012C00091E007C0F9018491480F511D9F5F2F5F86
:1012D0003F4F9617B8F3633038F0CD0183709070AC
:1012E000892B11F44F5F5F4F8DE691E0A89F90012D
:1012F000A99F300DB89F300D112421503040139616
:10130000B695A795B695A7952A0F3B1F240F351FB5
:10131000C9010895EF92FF920F931F93CF93DF932C
:10132000EC017A018B0180E89CEBA2E9B7ECE80EB6
:10133000F91E0A1F1B1FC801B7012CE330E040E073
:1013400050E00E9471176D83C801B7012CE330E0B3
:1013500040E050E00E947117122F032FF42EE52E6B
:10136000622F732F842F952F2CE330E040E050E064
:101370000E9471176C83612F702F8F2D9E2D2CE38F
:1013800030E040E050E00E947117122F032FF42E3E
:10139000E52E622F732F842F952F28E130E040E057
:1013A00050E00E9471176B83612F702F8F2D9E2D3F
:1013B00028E130E040E050E00E94711760E0A3E9CE
:1013C000BEEF70E0862F90E083709070892B09F457
:1013D00071E0E62FEF5F472F50E0CA0183599E4F1F
:1013E0002817390738F0CD01841B950B280F391FBA
:1013F0006E2FE7CF688341E0E42FF0E0E959FF4F1B
:101400008491772319F0423009F48F5F90E0542FD4
:101410005F5F2817390720F0281B390B452FECCFC9
:101420004983822F8F5F8A83DF91CF911F910F9124
:10143000FF90EF900895CF93DF93DC01FB01EB0168
:101440002996818580538A3008F080E029812053D5
:101450003AE0839FC0011124280F2C9380818A34A5
:10146000A9F08B343CF48434C1F18634F1F081343A
:10147000C1F51DC08E3479F18F341CF48D3489F59B
:101480001DC08F3421F1833561F51FC08181813604
:1014900011F481E023C082818E3611F087E001C013
:1014A00086E011968C93119719C082E017C0828153
:1014B000823711F088E012C084E010C08281823748
:1014C00011F085E00BC083E009C089E007C01196E8
:1014D0003C93119706C08BE001C08CE011968C9371
:1014E0001197EF012496648160536A3008F060E040
:1014F000298120538AE0689FC0011124280F129689
:101500002C931297EA01988190539A3008F090E05A
:10151000FA01218120538AE0989FC0011124280FED
:1015200013962C9313973396EA019B8190539A302C
:1015300008F090E0218120538AE0989FC001112497
:10154000280F14962C931497FA013696EA014E81CF
:1015500040534A3008F040E0218120538AE0489F00
:10156000C0011124280F15962C93DF91CF91089577
:101570000F931F938C01FC01808190E06181428177
:101580000E945609A0E0B0E0BC01CD0128E130E0A6
:1015900040E050E00E941F17F8012381620F711D87
:1015A000811D911D2CE330E040E050E00E941F17A8
:1015B000F8012481620F711D811D911D2CE330E023
:1015C00040E050E00E941F179B01AC01F8018581AB
:1015D000280F311D411D511D20583C4B4249574C8D
:1015E000B901CA011F910F91089581E00895BF923A
:1015F000CF92DF92EF92FF920F931F93DF93CF93DF
:1016000000D000D000D0CDB7DEB70CE812E0C801A2
:1016100068E670E00E940906C80160E00E948B063F
:10162000C8010E94CE06C80168E670E047E050E0BD
:101630000E94DF06C8010E941C069FE7B92EB8224F
:10164000C8010E941C06C82EC8010E941C06D82E84
:10165000C8010E941C06C8010E941C06E82EC80191
:101660000E941C06F82EC8010E941C06282F30E09C
:10167000B4E035952795BA95E1F74AEF5FEFB901E8
:10168000649F9001659F300D749F300D1124820F6F
:1016900090E02B2D30E0A4E035952795AA95E1F751
:1016A000B901649F9001659F300D749F300D112426
:1016B000B20E2C2D30E0F4E035952795FA95E1F740
:1016C000B901649F9001659F300D749F300D112406
:1016D000C20E2D2D30E0E4E035952795EA95E1F72F
:1016E000B901649F9001659F300D749F300D1124E6
:1016F000D20E2E2D30E074E0359527957A95E1F7DE
:10170000B901649F9001659F300D749F300D1124C5
:10171000E20E2F2D30E064E0359527956A95E1F7CC
:10172000B901649F9001659F300D749F300D1124A5
:10173000F20E282F3F2D4E2D5D2D6C2D7B2D80E040
:1017400026960FB6F894DEBF0FBECDBFCF91DF91C6
:101750001F910F91FF90EF90DF90CF90BF90089571
:101760008CE892E068E670E00E9409068CE892E05E
:1017700060E00E948B068CE892E00E94CE068CE826
:1017800092E068E670E041E050E00E94DF068CE8FD
:1017900092E00E941C0620E090E0880F892F881FAD
:1017A000990B892B09F421E0822F0895DF92EF92A3
:1017B000FF920F931F937C010CE812E0C80168E6CA
:1017C00070E00E940906C80160E00E948B06F701E4
:1017D0002581822F6AE00E943E1746E0D42E8D9D1F
:1017E000C0011124280FC801622F0E948B06F70147
:1017F0002481822F6AE00E943E178D9DC001112432
:10180000280FC801622F0E948B06F7012381822FC7
:101810006AE00E943E178D9DC0011124280FC80167
:10182000622F0E948B06C80160E00E948B06F701C0
:101830002281822F6AE00E943E178D9DC0011124F3
:10184000280FC801622F0E948B06F7012181822F89
:101850006AE00E943E178D9DC0011124280FC80127
:10186000622F0E948B06F7012081822F6AE00E947E
:101870003E178D9DC0011124280FC801622F0E94C0
:101880008B06C80160E00E948B06C8010E94CE064C
:101890001F910F91FF90EF90DF900895FC01138648
:1018A0001586148687E090E012863197009711F034
:1018B0000197FACF0895DC0180E00BC0E82FF0E03B
:1018C0008D9190E0E827F927EC58FF4FE4916150A3
:1018D0008E2F662399F70895DF92EF92FF920F9370
:1018E0001F93FC01E08001811281F894F80181814D
:1018F0008E2981838281DE2CD0948D21828383E0A6
:1019000090E00E94F711F80181818D2181838AE0A6
:1019100090E00E94F711F8010081789485E390E04F
:101920000E94F71180E010E0FF240E211F21012BFF
:1019300009F081E01F910F91FF90EF90DF900895E3
:10194000EF92FF920F931F93CF93DF937C0101E0FF
:1019500010E0C0E0D0E0C7010E946C0C8111102B98
:10196000000F2196C830D105B1F7812FDF91CF91BB
:101970001F910F91FF90EF9008951F93CF93DF93E6
:10198000FC011081C181D281912F909560FF12C01E
:10199000F8948A8189238A838981812B89838AE0CB
:1019A00090E00E94F7118A81812B8A83789487E3E3
:1019B00090E011C0F8948A8189238A838981812BE0
:1019C000898381E490E00E94F7118A81812B8A83C8
:1019D000789485E090E00E94F711DF91CF911F91FC
:1019E0000895CF92DF92EF92FF920F931F93CF93C0
:1019F000DF938C01E42EFF24F394C0E0D0E0C62EE8
:101A0000DD2460E08F2D90E08C219D21892B09F051
:101A100061E0C8010E94BD0CFF0C2196C830D105C1
:101A200081F7EE20A9F4F894D8011196ED91FC917C
:101A3000129791818C918095982391831196ED91C5
:101A4000FC91129792818C9180959823928378943F
:101A5000DF91CF911F910F91FF90EF90DF90CF908A
:101A600008956CEC40E00E94F10C0895EF92FF9213
:101A70000F931F93CF93DF938C017B0165E540E0CB
:101A80000E94F10CC0E0D0E0F701EC0FFD1FC8018F
:101A9000608140E00E94F10C2196C830D105A1F789
:101AA000DF91CF911F910F91FF90EF900895DF92FA
:101AB000EF92FF920F931F93CF93DF93FC0100816E
:101AC000C181D281F8948981D02ED0948D218983CF
:101AD00078941DE7E02EFF24115059F182E090E048
:101AE0000E94F711888190E08E219F21892BA1F31C
:101AF000F8948A818D218A838981802B89837894C7
:101B000084EF91E00E94F711F89489818D218983F7
:101B100080E590E00E94F711888110E090E0E822D3
:101B2000F922EF2809F411E0789484EA91E00E9408
:101B3000F711812FDF91CF911F910F91FF90EF90BF
:101B4000DF900895AF92BF92DF92EF92FF920F93D2
:101B50001F93CF93DF93EC015B018D85882309F000
:101B600061C0CE010E94570D882329F41B861D8673
:101B70001C8690E06BC0CE0160EF40E00E94F10C4B
:101B800001E0DD24EE24FF24F394CE010E946C0CCE
:101B9000182FCE010E946C0C113019F48130E1F441
:101BA00039C0181709F58B85081770F460E0FE013D
:101BB000EE0DF11D838190E02F2D30E082239323E1
:101BC000181619064CF003C060E0081729F0093018
:101BD00008F04CC00C874AC0FE01EE0DF11D838158
:101BE0008F29838361E009C0612FFE01EE0DF11D95
:101BF0009F2D9095838189238383CE010E94BD0C04
:101C00000F5FFF0C19F4E394FF24F39487E08E1523
:101C100008F0BBCF013430F0DB86DD2011F581E028
:101C20008D871FC01B861D861C8690E0DE0120E08C
:101C300030E0F501E20FF31F13968C911397808328
:101C40002F5F3F4F11962830310599F7892FDF918B
:101C5000CF911F910F91FF90EF90DF90BF90AF90C9
:101C600008958B818823F1F291E0E0CFD02EBDCF93
:101C7000FF920F931F938C01F62E862F60E00E9437
:101C80003C128F2D90E0FC01EA55FE4FE491D80103
:101C9000EC938E569E4FFC016491E62FF0E0EE0F20
:101CA000FF1FE857FE4F8591949112969C938E9357
:101CB00011971B961C921B971D961C921D971C96A4
:101CC0001C92F80187E090E012863197009711F09E
:101CD0000197FACF1F910F91FF900895FC0180EBBF
:101CE0009EE0928B818B768365831482108289E0DB
:101CF000818381E0828383830895FB01DA01119659
:101D00002C911197922F990F990F990F80E02C9198
:101D100030E053E0220F331F5A95E1F7282B392B7F
:101D200080818031D9F417966C91179770E01696E0
:101D30008C91AB01481B5109CA019695982F8827B1
:101D4000979587950E945E1760517040207F83E0D1
:101D5000220F331F8A95E1F7260F371FC901089517
:101D60000895EF92FF920F931F938C017B01FC016A
:101D7000858196810E94570DF80185819681B70172
:101D80000E94360DF8018581968164EB40E00E9447
:101D9000F10CF801858196810E946C0CF82EF801F7
:101DA000858196810E94570D80E0FF2009F481E033
:101DB0001F910F91FF90EF900895CF92DF92EF92D5
:101DC000FF920F931F938C016B017A01FC018581B7
:101DD00096810E94570DF80185819681B6010E9477
:101DE000360DF801858196816EEB40E00E94F10C82
:101DF000F801858196810E94A00CF7018083F8018B
:101E0000858196810E94A00CF7018183F80185816C
:101E100096810E94A00CF7018283F801858196814A
:101E20000E94A00CF7018383F801858196810E94AE
:101E3000A00CF7018483F801858196810E94A00C93
:101E4000F7018583F801858196810E94A00CF70136
:101E50008683F801858196810E94A00CF701878313
:101E6000F801858196810E94A00CF7018087F80116
:101E7000858196810E94570D1F910F91FF90EF90E1
:101E8000DF90CF900895DF93CF93CDB7DEB729973A
:101E90000FB6F894DEBF0FBECDBFAE014F5F5F4FF0
:101EA0000E94DD0E8981811181E029960FB6F89498
:101EB000DEBF0FBECDBFCF91DF910895AF92BF922D
:101EC000CF92DF92EF92FF920F931F93CF93DF9306
:101ED0006C015A01693051F0693070F06A3019F0C4
:101EE0006B3051F406C0CCEBD0E008C0CEE5D0E0BA
:101EF00005C0C7E7D1E002C0CEEED2E0A114B10424
:101F000011F1F60183818823F1F080818823D9F4CF
:101F10000E9490117B018C01CE01AA2797FDA0950C
:101F2000BA2FE80EF91E0A1F1B1FC601B5010E9439
:101F3000430F882379F40E9490116E157F05800766
:101F4000910740F4F2CFBE01882777FD8095982F46
:101F50000E949E11DF91CF911F910F91FF90EF9002
:101F6000DF90CF90BF90AF900895CF93DF93EC01B7
:101F70008D819E810E94570D8D819E810E94310D21
:101F80008D819E8164E448810E94F10C8A818823BE
:101F900031F0CE01698140E050E00E945E0FDF9198
:101FA000CF9108950F931F938A010E94DD0EC801FF
:101FB00068E00E945B0C20E0F8019085891709F425
:101FC00021E0822F1F910F910895CF92DF92EF921F
:101FD000FF920F931F93DF93CF93CDB7DEB729976F
:101FE0000FB6F894DEBF0FBECDBF8C017B016E0132
:101FF0000894C11CD11CA6010E94D20F882319F499
:1020000020E138EF06C0C801B701A6010E947D0E8D
:102010009C01C90129960FB6F894DEBF0FBECDBF53
:10202000CF91DF911F910F91FF90EF90DF90CF90B4
:1020300008950E94E50F9C0188EF213138072CF4A8
:10204000E0E070E08EEF62EC0FC0B901882777FD09
:102050008095982F0E94301620E030E040E05CE34D
:102060000E94BC16E62F692F2E2F372F482F562F90
:10207000B901CA010895DF93CF93CDB7DEB7299791
:102080000FB6F894DEBF0FBECDBF9C01FB0180816F
:102090008031D9F0C901AE014F5F5F4F0E94D20F6E
:1020A0008823A9F08D818F3361F0803418F48F314B
:1020B00071F409C08F3519F08F3749F406C08BE0F1
:1020C00007C08AE005C089E003C08CE001C080E061
:1020D00029960FB6F894DEBF0FBECDBFCF91DF912A
:1020E00008950F931F938B01CB0167E00E945B0C57
:1020F00020E0F8019781891709F421E0822F1F91D0
:102100000F910895EF92FF920F931F93CF93DF9358
:10211000EC017B01042F8D819E810E944E0C10E00A
:1021200007C0CE01B7010E9471108823A9F00AC030
:102130008D819E81B7010E94A20D882329F010177E
:1021400059F4EFCF81E001C080E0DF91CF911F9182
:102150000F91FF90EF9008951F5F0117A8F3E8CF4C
:10216000EF92FF920F931F93DF93CF93CDB7DEB71C
:1021700028970FB6F894DEBF0FBECDBF8C01462F57
:102180007E010894E11CF11CB7010E948210882393
:1021900029F460E070E08EEF92EC04C0C801B70152
:1021A0000E94191028960FB6F894DEBF0FBECDBF5F
:1021B000CF91DF911F910F91FF90EF900895AF9213
:1021C000BF92CF92DF92EF92FF920F931F93DF9314
:1021D000CF93CDB7DEB761970FB6F894DEBF0FBED1
:1021E000CDBF7C01FC01858196810E944E0CF701D8
:1021F00014826E010894C11CD11CE9E0AE2EB12CF2
:10220000AC0EBD1E01E02BC0C701B6010E947110CB
:10221000882329F1F7018081882341F4C701B601A1
:102220000E94B10E882311F0F7010083C701B601A7
:10223000A5010E94DD0EF7011181C701B6010E94C0
:102240003B10811718F4F701818104C0C701B60162
:102250000E943B10F701818384818F5F8483F701A3
:1022600085819681B6010E94A20D882369F6619648
:102270000FB6F894DEBF0FBECDBFCF91DF911F9197
:102280000F91FF90EF90DF90CF90BF90AF900895A7
:102290001F920F920FB60F9211242F933F938F939B
:1022A0009F93AF93BF9380910A0390910B03A091EA
:1022B0000C03B0910D0330910E030196A11DB11DC9
:1022C000232F2D5F2D3720F02D570196A11DB11D15
:1022D00020930E0380930A0390930B03A0930C03A7
:1022E000B0930D038091060390910703A09108031A
:1022F000B09109030196A11DB11D8093060390932F
:102300000703A0930803B0930903BF91AF919F9176
:102310008F913F912F910F900FBE0F901F901895A6
:102320008FB7F89420910A0330910B0340910C036E
:1023300050910D038FBFB901CA0108959B01AC01F3
:102340007FB7F8948091060390910703A09108034A
:10235000B091090366B5A89B05C06F3F19F00196BF
:10236000A11DB11D7FBFBA2FA92F982F8827860FD7
:10237000911DA11DB11D62E0880F991FAA1FBB1FEF
:102380006A95D1F7BC012DC0FFB7F8948091060380
:1023900090910703A0910803B0910903E6B5A89BAB
:1023A00005C0EF3F19F00196A11DB11DFFBFBA2F67
:1023B000A92F982F88278E0F911DA11DB11DE2E036
:1023C000880F991FAA1FBB1FEA95D1F7861B970B91
:1023D000885E9340C8F221503040404050406851E0
:1023E0007C4F211531054105510571F6089501977E
:1023F00039F0880F991F880F991F02970197F1F7FD
:102400000895789484B5826084BD84B5816084BD6C
:1024100085B5826085BD85B5816085BDEEE6F0E05D
:10242000808181608083E1E8F0E0108280818260B9
:102430008083808181608083E0E8F0E0808181603A
:102440008083E1EBF0E0808184608083E0EBF0E06A
:10245000808181608083EAE7F0E08081846080830E
:1024600080818260808380818160808380818068B8
:1024700080831092C1000895CF93DF93482F50E0DE
:10248000CA018A559E4FFC0134914E565E4FFA01A7
:102490008491882369F190E0880F991FFC01EC5822
:1024A000FE4FA591B491FC01E258FE4FC591D49125
:1024B000662351F42FB7F8948C91932F909589232C
:1024C0008C93888189230BC0623061F42FB7F89414
:1024D0008C91932F909589238C938881832B88836B
:1024E0002FBF06C09FB7F8948C91832B8C939FBF0E
:1024F000DF91CF910895482F50E0CA0186549E4F36
:10250000FC012491CA018A559E4FFC0194914E56BC
:102510005E4FFA013491332309F440C0222351F174
:10252000233071F0243028F42130A1F0223011F54D
:1025300014C02630B1F02730C1F02430D9F404C0E3
:10254000809180008F7703C0809180008F7D809381
:10255000800010C084B58F7702C084B58F7D84BDA4
:1025600009C08091B0008F7703C08091B0008F7D4B
:102570008093B000E32FF0E0EE0FFF1FE258FE4F14
:10258000A591B4912FB7F894662321F48C9190957E
:10259000892302C08C91892B8C932FBF0895682FBB
:1025A00070E0CB0186549E4FFC012491CB018A55EB
:1025B0009E4FFC0144916E567E4FFB0194919923EE
:1025C00019F420E030E03CC0222351F1233071F0B7
:1025D000243028F42130A1F0223011F514C0263027
:1025E000B1F02730C1F02430D9F404C080918000CC
:1025F0008F7703C0809180008F7D8093800010C012
:1026000084B58F7702C084B58F7D84BD09C0809169
:10261000B0008F7703C08091B0008F7D8093B000B1
:10262000892F90E0880F991F88579E4FFC01A59134
:10263000B4918C9120E030E0842311F021E030E06F
:10264000C9010895BF92CF92DF92EF92FF920F934C
:102650001F93CF93DF93E82EF62EB42EC7E0D0E081
:10266000022F10E087E0C82ED12CBB2059F4B60110
:102670006C1B7D0BC80102C0959587956A95E2F7A2
:10268000BC0107C0B8010C2E02C0759567950A946D
:10269000E2F761708E2D0E947B128F2D61E00E9407
:1026A0007B128F2D60E00E947B1221979FEFCF3F1E
:1026B000D907D9F6DF91CF911F910F91FF90EF903D
:1026C000DF90CF90BF90089508951F920F920FB69C
:1026D0000F9211242F933F934F938F939F93EF93D8
:1026E000FF938091C00082FD1DC04091C6002091E3
:1026F0004F03309150032F5F3F4F2F733070809105
:102700005103909152032817390771F0E0914F035C
:10271000F0915003E15FFC4F4083309350032093CE
:102720004F0302C08091C600FF91EF919F918F915E
:102730004F913F912F910F900FBE0F901F901895C2
:10274000E091A303F091A403E05CFF4F819191918C
:1027500020813181821B930B8F739070892B11F034
:102760000E94641308951F920F920FB60F921124C6
:102770002F933F938F939F93EF93FF932091930316
:10278000309194038091950390919603281739070F
:1027900031F48091C1008F7D8093C10014C0E0911D
:1027A0009503F0919603ED5AFC4F2081809195039B
:1027B0009091960301968F739070909396038093F7
:1027C00095032093C600FF91EF919F918F913F91C8
:1027D0002F910F900FBE0F901F901895AF92BF9240
:1027E000DF92EF92FF920F931F93CF93DF93EC0151
:1027F0007A018B01DD24403081EE580780E06807C4
:1028000080E0780711F0DD24D39491E0A92EB12C5B
:10281000EC89FD89DD2069F0C50108A002C0880FA0
:10282000991F0A94E2F7808360E079E08DE390E0FD
:1028300005C0108260E874E88EE190E0A80197017D
:102840000E947117215030404040504056954795A6
:102850003795279580E12030380720F0DD2011F0F2
:10286000DD24D6CFE889F9893083EA89FB89208382
:1028700019A2EE89FF89408121E030E0C9010C8C6A
:1028800002C0880F991F0A94E2F7482B4083EE8913
:10289000FF894081C9010D8C02C0880F991F0A94DD
:1028A000E2F7482B4083EE89FF894081C9010E8CF5
:1028B00002C0880F991F0A94E2F7482B4083EE89E3
:1028C000FF8980810F8C02C0220F331F0A94E2F728
:1028D000209528232083DF91CF911F910F91FF90A6
:1028E000EF90DF90BF90AF900895DC011C96ED91C2
:1028F000FC911D97E05CFF4F219131918081918186
:10290000281B390B2F733070C9010895DC011C9608
:10291000ED91FC911D97E05CFF4F20813181E054E7
:10292000F040DF01AE5BBF4F8D919C91119728174E
:10293000390719F42FEF3FEF07C08D919C91E80FF5
:10294000F91F8081282F30E0C9010895DC011C9611
:10295000ED91FC911D97E05CFF4F20813181E054A7
:10296000F040DF01AE5BBF4F8D919C91119728170E
:10297000390719F42FEF3FEF10C08D919C911197FB
:10298000E80FF91F20818D919C91119701968F730B
:10299000907011969C938E9330E0C9010895DC01EC
:1029A00091968C919197882339F05496ED91FC91F2
:1029B0005597808186FFF9CF91961C920895CF9309
:1029C000DF93EC01EE85FF85E05CFF4F20813181D4
:1029D000E054F0402F5F3F4F2F733070DF01AE5B4C
:1029E000BF4F8D919C91119728173907D1F3E05C67
:1029F000FF4F80819181E054F040E80FF91F608320
:102A0000EE85FF85E05CFF4F31832083EE89FF89EF
:102A1000208181E090E00F8C02C0880F991F0A94FA
:102A2000E2F7282B208381E089A3EC89FD8980814E
:102A30008064808381E090E0DF91CF9108951092CF
:102A40009A031092990388EE93E0A0E0B0E080939F
:102A50009B0390939C03A0939D03B0939E0387E9EF
:102A600091E090939803809397038FE093E0909385
:102A7000A4038093A30383E593E09093A60380933C
:102A8000A50385EC90E09093A8038093A70384ECC2
:102A900090E09093AA038093A90380EC90E0909338
:102AA000AC038093AB0381EC90E09093AE038093F2
:102AB000AD0382EC90E09093B0038093AF0386EC7B
:102AC00090E09093B2038093B10384E08093B303CA
:102AD00083E08093B40387E08093B50385E080931F
:102AE000B60381E08093B7030895CF93DF930E94EC
:102AF00001120E94FD02C0EAD3E10E944702209722
:102B0000E1F30E94A013F9CFCF92DF92EF92FF92F0
:102B10000F931F93CF93DF937C016B018A01C0E079
:102B2000D0E00FC0D6016D916D01D701ED91FC9100
:102B30000190F081E02DC7010995C80FD91F015000
:102B400010400115110571F7CE01DF91CF911F9152
:102B50000F91FF90EF90DF90CF900895EF92FF924A
:102B60000F931F938C01DC01ED91FC910190F0819A
:102B7000E02D6DE009957C01D801ED91FC9101906B
:102B8000F081E02DC8016AE009959C012E0D3F1DE2
:102B9000C9011F910F91FF90EF900895CF93DF939C
:102BA000EC016115710519F420E030E00FC0DB0184
:102BB0000D900020E9F71197A61BB70BE881F9816A
:102BC0000280F381E02DAD0109959C01C901DF91DF
:102BD000CF910895EF92FF920F931F937C010E9473
:102BE000CE158C01C7010E94AE15080F191FC80130
:102BF0001F910F91FF90EF90089504D06894B11148
:102C0000B5C0089598D088F09F5790F0B92F9927B4
:102C1000B751A0F0D1F0660F771F881F991F1AF0E7
:102C2000BA95C9F712C0B13081F09FD0B1E00895D4
:102C30009CC0672F782F8827B85F39F0B93FCCF355
:102C4000869577956795B395D9F73EF490958095DD
:102C5000709561957F4F8F4F9F4F0895E89409C0FD
:102C600097FB3EF490958095709561957F4F8F4FBF
:102C70009F4F9923A9F0F92F96E9BB279395F695D5
:102C8000879577956795B795F111F8CFFAF4BB0F53
:102C900011F460FF1BC06F5F7F4F8F4F9F4F16C0B7
:102CA000882311F096E911C0772321F09EE8872F41
:102CB000762F05C0662371F096E8862F70E060E0FD
:102CC0002AF09A95660F771F881FDAF7880F969576
:102CD000879597F9089597F99F6780E870E060E01D
:102CE00008959FEF80EC089500240A9416161706A5
:102CF00018060906089500240A94121613061406ED
:102D000005060895092E0394000C11F4882352F04F
:102D1000BB0F40F4BF2B11F460FF04C06F5F7F4F07
:102D20008F4F9F4F089557FD9058440F551F59F0EE
:102D30005F3F71F04795880F97FB991F61F09F3FA8
:102D400079F087950895121613061406551FF2CFD1
:102D50004695F1DF08C0161617061806991FF1CF21
:102D600086957105610508940895E894BB27662748
:102D70007727CB0197F908950BD0C4CFB5DF28F0A2
:102D8000BADF18F0952309F0A6CFABCF1124EECF10
:102D9000CADFA0F3959FD1F3950F50E0551F629FB6
:102DA000F001729FBB27F00DB11D639FAA27F00DA4
:102DB000B11DAA1F649F6627B00DA11D661F829FCB
:102DC0002227B00DA11D621F739FB00DA11D621FB0
:102DD000839FA00D611D221F749F3327A00D611DCD
:102DE000231F849F600D211D822F762F6A2F1124AF
:102DF0009F5750408AF0E1F088234AF0EE0FFF1F02
:102E0000BB1F661F771F881F91505040A9F79E3F38
:102E1000510570F060CFAACF5F3FECF3983EDCF332
:102E2000869577956795B795F795E7959F5FC1F775
:102E3000FE2B880F911D9695879597F90895629FAF
:102E4000D001739FF001829FE00DF11D649FE00DA2
:102E5000F11D929FF00D839FF00D749FF00D659F03
:102E6000F00D9927729FB00DE11DF91F639FB00D02
:102E7000E11DF91FBD01CF0111240895991B79E0CF
:102E800004C0991F961708F0961B881F7A95C9F7FA
:102E900080950895AA1BBB1B51E107C0AA1FBB1F49
:102EA000A617B70710F0A61BB70B881F991F5A95D6
:102EB000A9F780959095BC01CD01089597FB092E47
:102EC00007260AD077FD04D0E5DF06D000201AF4EB
:102ED000709561957F4F0895F6F7909581959F4F76
:102EE0000895A1E21A2EAA1BBB1BFD010DC0AA1F4B
:102EF000BB1FEE1FFF1FA217B307E407F50720F063
:102F0000A21BB30BE40BF50B661F771F881F991FDD
:102F10001A9469F760957095809590959B01AC0126
:102F2000BD01CF010895EE0FFF1F0590F491E02D34
:062F30000994F894FFCFA4
:102F36004E6F7620333020323031340032333A321D
:102F4600323A303500686F6C640072656C65617387
:102F560000FFFFFFFFFFFFFFFFFF8181818181816E
:102F6600FF007E424242427E0000003C24243C0098
:102F7600000000001818000000000000000000001B
:102F86000000FE82FE0084FE8000F2929E00929275
:102F9600FE001E10FE009E92F200FE92F200020259
:102FA600FE00FE92FE009E92FE001C141C00FE8295
:102FB600820A00000000008B065A0613061C063122
:102FC60006420600000000DF1484157514A6148658
:042FD60014CF140000
:00000001FF
